:100000000C9416020C9435020C9435020C943502B3
:100010000C9435020C949E110C949E110C9498072C
:100020000C9435020C9435020C9435020C94350274
:100030000C9435020C9435020C9435020C94350264
:100040000C9435020C9418060C9435020C9435026D
:100050000C9435020C9435020C9435020C94350244
:100060000C9435020C9435020C9435020C94350234
:100070000C9435020C9435020C9435020C94350224
:100080000C9437020C9435020C9435020C94350212
:100090000C9435020C9435020000000000880088A2
:1000A0000000000000000088008800000000000040
:1000B000008804E004E000880000008804E000C834
:1000C00000880000008804E004E0FFFF04E00088EE
:1000D00004E004E004E000C80088008804E0FFFFBA
:1000E00004E004E004E004E004E004E000C8008868
:1000F000008804E004E004E004E004E004E004E03C
:1001000004E000C800880000008804E004E004E087
:1001100004E004E004E000C80088000000000000E3
:10012000008804E004E004E004E000C80088000067
:100130000000000000000000008804E004E000C8A7
:100140000088000000000000000000000000000027
:10015000008800C8008800000000000000000000C7
:100160000000000000000000008800000000000007
:10017000000000000000000000880088000000006F
:1001800000000088008800000000000000883DAFEB
:100190003DAF0088000000883DAF3DAF0088000003
:1001A0000088FFFFFFFFFFFF3DAF0088FFFFFFFF5D
:1001B000FFFF3DAF00880088FFFFFFFFFFFFFFFF4D
:1001C000FFFFFFFFFFFFFFFF3DAF00880088FFFF3D
:1001D000FFFFFFFFFFFFFFFFFFFFFFFFFFFF3DAF41
:1001E000008800000088FFFFFFFFFFFFFFFFFFFF09
:1001F000FFFF3DAF00880000000000000088FFFF07
:10020000FFFFFFFFFFFF3DAF008800000000000080
:10021000000000000088FFFFFFFF3DAF00880000E6
:1002200000000000000000000000000000883DAF5A
:100230000088000000000000000000000000000036
:100240000000008800000000000000000000000026
:10025000000000000000005F000000030003001425
:100260003E143E14242A7F2A12433308666136491D
:100270005522500005030000001C224100004122CD
:100280001C0014083E081408083E080800503000FE
:100290000008080808080060600000201008040238
:1002A0003E5149453E0004027F00426151494622C9
:1002B000414949361814127F1027454545393E49B2
:1002C00049493201017109073649494936264949E8
:1002D000493E003636000000563600000814224120
:1002E00000141414141400412214080201510906C8
:1002F0003E4159555E7E0909097E7F494949363E8E
:10030000414141227F4141413E7F494949417F0965
:100310000909013E4141493A7F0808087F00417FB1
:100320004100304040403F7F081422417F40404020
:10033000407F020C027F7F0204087F3E4141413E24
:100340007F090909061E2121215E7F0909097626F8
:100350004949493201017F01013F4040403F1F2090
:1003600040201F7F2010207F41221C22410708705F
:1003700008076151494543007F410000020408100D
:10038000200000417F000402010204404040404040
:10039000000102040020545454787F444444383807
:1003A00044444444384444447F3854545418040466
:1003B0007E0505085454543C7F0804047800447DAD
:1003C00040002040443D007F1028440000417F4011
:1003D000007C047804787C08040478384444443869
:1003E0007C14141408081414147C007C08040448B9
:1003F0005454542004043F44443C4040207C1C207E
:1004000040201C3C4030403C44281028440C5050B4
:10041000503C4464544C44000836414100007F0085
:1004200000414136080002010204020011241FBEEF
:10043000CFEFD0E2DEBFCDBF1EE0A0E0B1E0E8E14B
:10044000FBE300E00BBF02C007900D92AC34B10794
:10045000D9F71EE0ACE4BEE001C01D92A439B1079B
:10046000E1F70E94DD040C948A1D0C9400001F9299
:100470000F920FB60F9211240F900FBE0F901F9086
:100480001895679919C080914D0E90914E0E892B49
:1004900099F48091570E9091580E892B69F481E060
:1004A00090E090934E0E80934D0E9093580E809353
:1004B000570E21E030E012C0679B0EC080914D0EB8
:1004C00090914E0E892B41F010924E0E10924D0ECF
:1004D0001092580E1092570E20E030E0C901089596
:1004E0000F931F9300918E0E10918F0E87E690E070
:1004F00064E170E04AE050E029E030E00E94390C0D
:1005000080916F0E882359F087E690E064E170E0F7
:100510004AE050E029E030E008E910E00AC087E650
:1005200090E064E170E04AE050E029E030E004E768
:1005300011E00E944C0900918E0E10918F0E83E7FE
:1005400090E064E170E04AE050E029E030E00E9491
:10055000390C80916F0E823058F083E790E064E1AF
:1005600070E04AE050E029E030E008E910E00AC01D
:1005700083E790E064E170E04AE050E029E030E099
:1005800004E711E00E944C0900918E0E10918F0E2D
:100590008EE790E064E170E04AE050E029E030E06E
:1005A0000E94390C80916F0E833058F08EE790E0F6
:1005B00064E170E04AE050E029E030E008E910E052
:1005C0000AC08EE790E064E170E04AE050E029E084
:1005D00030E004E711E00E944C091F910F9108954B
:1005E0006F927F928F929F92AF92BF92CF92DF9243
:1005F000EF92FF920F931F93DF93CF93CDB7DEB7A8
:1006000028970FB6F894DEBF0FBECDBF882499247B
:10061000EE24FF2491E0692E712CBAC06501CC0C48
:10062000DD1CE0916B0EF0916C0EEC0DFD1D019048
:10063000F081E02DEE0DFF1D80859185892B09F05D
:1006400095C02481358106811781A281B3810190F3
:10065000F081E02D8091720E9091730E8E179F079E
:1006600078F18091700E9091710EA817B90740F142
:100670008091740E9091750E8017910739F08091DA
:10068000760E9091770E82179307D1F4622F3E83F6
:100690002D8318870F834A2FBC83AB832E2FFA83B9
:1006A000E9833A815C817E81802F988500E010E0AB
:1006B0000E94840B8091030381958093030337C0CC
:1006C0008091760E9091770E8217930708F44EC0B2
:1006D0008091740E9091750E0817190708F446C0A2
:1006E0008091720E9091730E8A179B0739F080915A
:1006F000700E9091710E8E179F07C1F5622F3E8389
:100700002D8318870F834A2FBC83AB832E2FFA8348
:10071000E9833A815C817E81802F988500E010E03A
:100720000E94840B80910403819580930403E091DF
:100730006B0EF0916C0EEC0DFD1D0190F081E02D23
:10074000EE0DFF1D7186608680916D0E90916E0E8C
:10075000019690936E0E80936D0E8091800E909115
:10076000810E01979093810E8093800E0894A11CB6
:10077000B11C8091EF029091F002A816B9060CF41A
:100780004DCF0894811C911C8AE090E0E80EF91E80
:100790008091ED029091EE02881699061CF4AA242D
:1007A000BB24E7CF28960FB6F894DEBF0FBECDBFAF
:1007B000CF91DF911F910F91FF90EF90DF90CF903D
:1007C000BF90AF909F908F907F906F9008952F92E1
:1007D0003F924F925F926F927F928F929F92AF92D1
:1007E000BF92CF92DF92EF92FF920F931F93DF930E
:1007F000CF93CDB7DEB72C970FB6F894DEBF0FBE00
:10080000CDBF80916B0E90916C0E0E94B6198091B5
:10081000EF029091F002880F991F0E9409198093AE
:100820006B0E90936C0EEE24FF241FC0C701880F3F
:10083000991F00916B0E10916C0E080F191F80917B
:10084000ED029091EE029C0173E0220F331F7A9526
:10085000E1F7880F991F820F931F0E940919F80171
:10086000808391830894E11CF11C8091EF029091A8
:10087000F002E816F906D4F28091B20090E00E94EE
:100880006E1A1C861B862224332457E3A52EB12C16
:1008900067C0C301B9010E949D186B0182E090E01E
:1008A000C80ED91E80EF90E0B9010E949D187B010F
:1008B000EBEFFFEFEE0EFF1EEC0CFD1CC401880FEA
:1008C000991FE0916B0EF0916C0EE80FF91F0190EB
:1008D000F081E02DE20DF31D11861086B782A6820D
:1008E000F382E28255824482C082D1820E94691AD8
:1008F00065E175E00E949D18FC01EE0FFF1FE05FAF
:10090000FC4F00811181B886AF824E2DFC82EB82B4
:10091000642D5E824D82C982DA8296015C817E817D
:100920008A2D98850E94840B0894811C911C20EFCD
:1009300030E0620E731E2091EF023091F0028216B9
:1009400093060CF4A6CF8B859C8501969C878B879C
:10095000EAE0F0E02E0E3F1E2FE030E0A20EB31EC4
:100960008091ED029091EE02EB85FC85E817F90786
:100970005CF426EF422E2FEF522E4A0C5B1C88248B
:10098000992466247724D7CF2C960FB6F894DEBF2F
:100990000FBECDBFCF91DF911F910F91FF90EF90D0
:1009A000DF90CF90BF90AF909F908F907F906F908F
:1009B0005F904F903F902F900895FF920F931F9359
:1009C000CF93DF9380E880936100109261000E94D2
:1009D0005F110E9450110E94670D8DE30E94130960
:1009E000EE9A8DB380638DBB1092800098E0909357
:1009F00081008091810081608093810080916F00EF
:100A0000826080936F00109290009093910080918B
:100A10009100846080939100809171008260809346
:100A2000710082E19AE790939900809398008091F9
:100A3000B20090E00E946E1A49C00E94691A65E1F6
:100A400075E00E949D18FC01EE0FFF1FE05FFC4F58
:100A50008081918190938D0E80938C0E80E091E047
:100A600060E070E049E150E00E94350F87E291E0DC
:100A70000E94090F8EE491E00E94090F85E791E042
:100A80000E94090F8CE991E00E94090F83EC91E02C
:100A90000E94090F8BEE91E00E94090F89E092E01D
:100AA0000E94090F89E292E00E94090F8BE492E014
:100AB0000E94090F89E692E00E94090F86E892E001
:100AC00064E670E04DE151E00E94350F0E94410262
:100AD000892B09F4B2CF8091EF029091F00220911E
:100AE000ED023091EE02AC01429FC001439F900D98
:100AF000529F900D11249093810E8093800E01E0FF
:100B000010E0B3E0FB2ECFEFDFEF1093F202009383
:100B1000F1020E94280D0E94E703A8E7BEE0E3EF80
:100B2000F2E088E001900D928150E1F7ABE5BEE084
:100B3000E8E7FEE088E001900D928150E1F7A0E740
:100B4000BEE0EBEFF2E088E001900D928150E1F71A
:100B5000A3E6BEE0E0E7FEE088E001900D92815060
:100B6000E1F7F0926F0E10926E0E10926D0ED09310
:100B70008900C09388000E945311789480916F0E71
:100B80008823E1F7F8940E94551121C00E94691A48
:100B900065E175E00E949D18FC01EE0FFF1FE05F0C
:100BA000FC4F8081918190938D0E80938C0E86EA0C
:100BB00092E064E170E048EC50E00E94350F8EEB6B
:100BC00092E064E670E04DE151E00E94350F0E9432
:100BD0004102892B09F099CFD9CF8091F1029091F0
:100BE000F20201969093F2028093F1022091ED02BD
:100BF0003091EE022F5F3F4F3093EE022093ED02D3
:100C00008091EF029091F00201969093F002809310
:100C1000EF02AC01429FC001439F900D529F900D87
:100C200011249093810E8093800E0E94E703089513
:100C30001F920F920FB60F920BB60F921124AF9224
:100C4000BF92CF92DF92EF92FF920F931F932F9359
:100C50003F934F935F936F937F938F939F93AF9344
:100C6000BF93EF93FF936091F1027091F20286E0DF
:100C700090E00E949D18882777FD8095982F0E940C
:100C8000D6155B016C0120E030E04AEF54E40E948D
:100C9000A0137B018C0120E030E040E85FE30E947C
:100CA000A61588231CF461E070E024C0C801B701D8
:100CB00020E03FEF4FE757E40E9446151816B4F4C2
:100CC000C601B50120E030E040E251E40E94A013EB
:100CD0000E94CA1188EC90E005C0FC013197F1F741
:100CE0006150704061157105C1F707C0C801B701B7
:100CF0000E94CA11CB010197F1F78091700E90917B
:100D0000710E50910403252F332727FD3095820F54
:100D1000931F9093710E8093700E8091720E90913C
:100D2000730E280F391F3093730E2093720E80912B
:100D3000740E9091750E40910303242F332727FDE5
:100D40003095820F931F9093750E8093740E80914F
:100D5000760E9091770E280F391F3093770E2093DF
:100D6000760E2091720E3091730E6091820E70910A
:100D7000830ECB0101972817390730F48091700E4C
:100D80009091710E892B19F4519550930403809121
:100D9000740E9091750E892B19F4419540930303BD
:100DA0002091760E3091770E4091840E5091850EF1
:100DB000CA01019728173907D9F42091700E309194
:100DC000710E80917A0E90917B0E8217930780F0BE
:100DD0002091720E3091730E8091780E9091790E61
:100DE0002817390728F08091030381958093030326
:100DF0008091590E87FF18C08091780E9091790EDE
:100E00000A9790F08091780E9091790E0A979093BE
:100E1000790E8093780E80917A0E90917B0E0A97CE
:100E200090937B0E80937A0E8091590E1816DCF405
:100E300080917A0E90917B0E6A50704086179707CA
:100E400090F48091780E9091790E0A969093790E95
:100E50008093780E80917A0E90917B0E0A969093F3
:100E60007B0E80937A0E1092590E8091760E90919F
:100E7000770E4817590728F580916F0E815080939F
:100E80006F0E0E94700220916F0E220F83E090E09F
:100E900002C0880F991F2A95E2F70E945911A0E716
:100EA000BEE0EBEFF2E088E001900D928150E1F7B7
:100EB000A8E7BEE0E3EFF2E088E001900D928150F8
:100EC000E1F70E94F0028091800E9091810E892BB3
:100ED000A1F40E94ED05A0E7BEE0EBEFF2E088E0B0
:100EE00001900D928150E1F7A8E7BEE0E3EFF2E058
:100EF00088E001900D928150E1F7FF91EF91BF9151
:100F0000AF919F918F917F916F915F914F913F91A1
:100F10002F911F910F91FF90EF90DF90CF90BF9096
:100F2000AF900F900BBE0F900FBE0F901F901895B3
:100F30001F920F920FB60F920BB60F921124EF92E1
:100F4000FF920F931F932F933F934F935F936F9352
:100F50007F938F939F93AF93BF93EF93FF93DF9311
:100F6000CF93CDB7DEB72E97DEBFCDBF00918E0EEB
:100F700010918F0E2091630E3091640E4091650E9A
:100F80005091660E6091670E7091680E8091690EA7
:100F900090916A0E0E94840B00918C0E10918D0E20
:100FA0002091700E3091710E4091720E5091730E1F
:100FB0006091740E7091750E8091760E9091770EFF
:100FC0000E94840B00918E0E10918F0E20915B0E6B
:100FD00030915C0E40915D0E50915E0E60915F0EFF
:100FE0007091600E8091610E9091620E0E94840B50
:100FF00000918C0E10918D0E2091780E3091790E0B
:1010000040917A0E50917B0E60917C0E70917D0E16
:1010100080917E0E90917F0E0E94840BA3E6BEE02D
:10102000E0E7FEE088E001900D928150E1F7ABE54A
:10103000BEE0E8E7FEE088E001900D928150E1F724
:1010400020916D0E30916E0E00D000D000D0EDB723
:10105000FEB731967E010894E11CF11CADB7BEB716
:101060001296FC92EE9211978FED92E09383828319
:10107000358324830E94791AEDB7FEB731968E012D
:101080000B5F1F4FADB7BEB712961C930E9311970F
:1010900084EE92E0938382838091F1029091F20238
:1010A000958384830E94791A8DB79EB706960FB6F2
:1010B000F8949EBF0FBE8DBFC70168EC70E044E19D
:1010C00050E00E94350FC80164E170E044E150E057
:1010D0000E94350F0E94700280914C0E8F5F8093AA
:1010E0004C0E2E96DEBFCDBFCF91DF91FF91EF91D9
:1010F000BF91AF919F918F917F916F915F914F9130
:101100003F912F911F910F91FF90EF900F900BBE89
:101110000F900FBE0F901F90189593E89093B0001A
:1011200091E09093B1008093B30008959C01909357
:10113000870E8093860E86E390E080930040211511
:10114000310589F480EF90E09093830E8093820EB6
:1011500080E491E09093850E8093840E88E490E083
:10116000809300413BC02130310589F480E491E057
:101170009093830E8093820E80EF90E09093850E83
:101180008093840E88EE90E08093004127C0223047
:10119000310589F480EF90E09093830E8093820E66
:1011A00080E491E09093850E8093840E88E890E02F
:1011B0008093004113C02330310581F480E491E035
:1011C0009093830E8093820E80EF90E09093850E33
:1011D0008093840E88E290E0809300418AE290E060
:1011E0008093004020E030E03093004120930041A4
:1011F0008091820E9091830E01979093004180938D
:1012000000418BE290E080930040309300412093B6
:1012100000418091840E9091850E0197909300413A
:101220008093004108951F93682F873718F010E0CE
:1012300066E711C0883010F468E00CC08D3310F000
:1012400010E009C08F3110F011E005C0803110F0BE
:1012500012E001C013E081EB90E080930040109316
:10126000004170E0882777FD8095982F0E94D61561
:101270009B01AC0160E070E080EF94E40E949A145E
:101280000E94CA1170E002C0759567951A95E2F741
:10129000609300411F9108950F931F93EAE2F0E0DD
:1012A000E09300409093004180930041840F951F8C
:1012B00090930041809300418BE290E08093004046
:1012C0007093004160930041620F731F709300415F
:1012D000609300418CE290E0809300404F5F5F4F4D
:1012E0002F5F3F4F42175307C8F4822F877090E05B
:1012F000849FB001859F700D949F700D1124F3E0C1
:1013000036952795FA95E1F7822F90E0849FD001DA
:10131000859FB00D949FB00D112418C0842F877045
:1013200090E0829FB001839F700D929F700D1124F9
:10133000E3E056954795EA95E1F7842F90E0829F88
:10134000D001839FB00D929FB00D1124562F57707E
:101350009801452F0AC0F9012E5F3F4F8591949166
:10136000909300418093004141504423A1F7252FE1
:1013700030E0220F331F200F311FAB0183E0569561
:1013800047958A95E1F74A0F5B1F43C0F9018591A4
:1013900094919093004180930041F9013296859198
:1013A00094919093004180930041F9013496859186
:1013B00094919093004180930041F9013696859174
:1013C00094919093004180930041F9013896859162
:1013D00094919093004180930041F9013A96859150
:1013E00094919093004180930041F9013C9685913E
:1013F00094919093004180930041F9013E96205FC3
:101400003F4F8591949190930041809300414150CA
:1014100050404115510509F0B9CF1F910F91089522
:10142000EF92FF920F931F93CF93DF93F9012AE27C
:1014300030E0209300409093004180930041019759
:10144000840F951F90930041809300418BE290E0C0
:101450008093004070930041609300416150704060
:101460006E0F7F1F70930041609300418CE290E00B
:10147000809300404E175F07C8F48E2F877090E06E
:10148000849FD001859FB00D949FB00D112423E05F
:10149000F695E7952A95E1F78E2F90E0849FE0017D
:1014A000859FD00D949FD00D112418C0842F877074
:1014B00090E08E9FD0018F9FB00D9E9FB00D1124A4
:1014C00093E0569547959A95E1F7842F90E08E9F8B
:1014D000E0018F9FD00D9E9FD00D11247A2F777041
:1014E000A801672F12C07A01FA0185919491909317
:1014F0000041809300414E5F5F4FF70185919491C9
:1015000090930041809300416150662361F7272F3B
:1015100030E0220F331F200F311FAD01A3E056959D
:101520004795AA95E1F74C0F5D1F33C0F9018591EE
:101530009491909300418093004190930041809357
:101540000041F901329685919491909300418093E6
:1015500000419093004180930041F90134968591B8
:101560009491909300418093004190930041809327
:101570000041F9013696285F3F4F859194919093F1
:10158000004180930041909300418093004141507D
:1015900050404115510509F0C9CFDF91CF911F91FE
:1015A0000F91FF90EF9008950F931F93EAE2F0E000
:1015B000E09300409093004180930041840F951F79
:1015C00090930041809300418BE290E08093004033
:1015D0007093004160930041620F731F709300414C
:1015E000609300418CE290E0809300404F5F5F4F3A
:1015F0002F5F3F4F42175307C8F4822F877090E048
:10160000849FB001859F700D949F700D1124F3E0AD
:1016100036952795FA95E1F7822F90E0849FD001C7
:10162000859FB00D949FB00D112418C0842F877032
:1016300090E0829FB001839F700D929F700D1124E6
:10164000E3E056954795EA95E1F7842F90E0829F75
:10165000D001839FB00D929FB00D1124362F3770AB
:10166000F801232F07C081919191909300418093BD
:10167000004121502223B9F7E32FF0E0EE0FFF1FC6
:10168000E00FF11F9B0143E0369527954A95E1F75E
:101690002A0F3B1F33C0808191819093004180933A
:1016A0000041828193819093004180930041848125
:1016B000958190930041809300418681978190931A
:1016C00000418093004180859185909300418093F3
:1016D00000418285938590930041809300418485E9
:1016E00095859093004180930041868597859093DE
:1016F0000041809300417096215030402115310502
:1017000051F61F910F9108950F931F93DF93CF937D
:10171000CDB7DEB728970FB6F894DEBF0FBECDBFAA
:1017200029833A834B835C836D837E838F83988781
:1017300069817A812B813C81ED81FE814F815885C1
:101740008AE290E0809300407093004160930041F2
:1017500030930041209300418BE290E08093004061
:10176000F0930041E09300415093004140930041C9
:101770008CE290E0809300402F5F3F4F261B370B99
:101780004F5F5F4F4E1B5F0B24173507C8F4842F44
:10179000877090E0829FB001839F700D929F700DC3
:1017A000112483E0569547958A95E1F7842F90E0C0
:1017B000829FF001839FF00D929FF00D112418C0BD
:1017C000822F877090E0849FB001859F700D949F59
:1017D000700D1124B3E036952795BA95E1F7822F65
:1017E00090E0849FF001859FF00D949FF00D1124EF
:1017F000862F877005C010930041009300418150EF
:101800008823C9F7CB01A3E096958795AA95E1F7C0
:101810008E0F9F1F21C01093004100930041109331
:101820000041009300411093004100930041109348
:101830000041009300411093004100930041109338
:101840000041009300411093004100930041109328
:1018500000410093004101970097E9F628960FB6E2
:10186000F894DEBF0FBECDBFCF91DF911F910F91D6
:1018700008950F931F93EAE2F0E0E0930040909305
:10188000004180930041840F951F90930041809305
:1018900000418BE290E080930040709300416093A0
:1018A0000041620F731F70930041609300418CE20E
:1018B00090E0809300404F5F5F4F2F5F3F4F421794
:1018C0005307C8F4822F877090E0849FB001859FF2
:1018D000700D949F700D1124F3E036952795FA95BD
:1018E000E1F7822F90E0849FF001859FF00D949F97
:1018F000F00D112418C0842F877090E0829FB001F2
:10190000839F700D929F700D1124E3E056954795CB
:10191000EA95E1F7842F90E0829FF001839FF00D1C
:10192000929FF00D1124862F877005C010930041FF
:101930000093004181508823C9F7CB0123E096959D
:1019400087952A95E1F78E0F9F1F21C010930041C4
:101950000093004110930041009300411093004117
:101960000093004110930041009300411093004107
:1019700000930041109300410093004110930041F7
:10198000009300411093004100930041019700979C
:10199000E9F61F910F910895EF92FF920F931F9315
:1019A000DF93CF93CDB7DEB728970FB6F894DEBF9D
:1019B0000FBECDBF29833A834B835C836D837E83C7
:1019C0008F83988729813A81AB81BC81ED80FE802D
:1019D0006F8178858AE290E08093004030930041E7
:1019E00020930041B0930041A09300418BE290E02E
:1019F00080930040F0920041E092004170930041DA
:101A0000609300418CE290E0809300400FC0F801A9
:101A1000819191918F0190930041809300414F5F9C
:101A20005F4F6417750798F72F5F3F4FA217B307F3
:101A300010F0A701F6CF28960FB6F894DEBF0FBEC0
:101A4000CDBFCF91DF911F910F91FF90EF9008953F
:101A50000F931F93DF93CF93CDB7DEB728970FB6C1
:101A6000F894DEBF0FBECDBF1092890E1092880E83
:101A700010928B0E10928A0E2091820E3091830E5E
:101A8000215030408091840E9091850E01971A82EA
:101A90001982422F3C832B831E821D8298878F835D
:101AA00000918E0E10918F0E29813A815C816D819B
:101AB0007E8198850E94840B28960FB6F894DEBF2D
:101AC0000FBECDBFCF91DF911F910F91089586E09A
:101AD0008093750080E8809374003F9A249A80ED8B
:101AE00097E00197F1F7479880E49CE90197F1F7B7
:101AF000479A80EB94E028EC30E0F9013197F1F758
:101B00000197D9F788E290E08093004081E190E06E
:101B10008093004088E592E028EC30E0F9013197AD
:101B2000F1F70197D9F741E050E08BEC90E080931A
:101B300000404093004180EC90E08093004088E0BA
:101B400096E2909300418093004120E130E081ECE7
:101B500090E0809300402093004185EC90E08093DA
:101B600000408EE395E3909300418093004125EB84
:101B700030E087EC90E0809300402093004186EFB6
:101B800090E0809300404093004180E090E090938B
:101B900000418093004125E530E08AE390E08093A6
:101BA00000402093004180E090E00E9496080E944F
:101BB000280D1092890E1092880E10928B0E1092A2
:101BC0008A0E10928F0E10928E0E8FEF9FEF9093D1
:101BD0008D0E80938C0E89E290E08093004084EF1C
:101BE00091E028EC30E0F9013197F1F70197D9F74E
:101BF00080E090E025E330E02093004080930041B6
:101C000080916A00806280936A002C9A08954F92B6
:101C10005F926F927F928F929F92AF92BF92CF927C
:101C2000DF92EF92FF920F931F93CF93DF93982F42
:101C30003B017A012091880E3091890E14E0C12E6B
:101C4000D12CC20ED31E60918A0E70918B0E8A30F9
:101C5000B1F41092890E1092880E9B01285F3F4FBD
:101C600030938B0E20938A0E8091840E9091850E76
:101C70002817390708F483C00E94280D80C08052BD
:101C80008F3508F07CC0EB01279685E09802A00113
:101C9000112440555E4F8BE290E08093004070939A
:101CA000004160930041D0930041C093004129015D
:101CB000BAE28B2E912CACE2AA2EB12C25C08092D8
:101CC00000405092004140920041509200414092A9
:101CD0000041A0920040FA010491DB0111E00CC028
:101CE000812F802311F4970101C0930130930041AB
:101CF000209300411196110FCA17DB0788F74F5F39
:101D00005F4F0894411C511CC414D504C0F68AE2EC
:101D100090E08093004050920041409200415092E8
:101D20000041409200418CE290E0809300409B0192
:101D300006C0F0920041E09200412F5F3F4FC21772
:101D4000D307B8F78091880E9091890E06969093EC
:101D5000890E8093880E2091820E3091830E821717
:101D6000930768F01092890E1092880E80918A0E67
:101D700090918B0E089690938B0E80938A0EDF9134
:101D8000CF911F910F91FF90EF90DF90CF90BF9078
:101D9000AF909F908F907F906F905F904F9008953D
:101DA0000F931F937093890E6093880E50938B0E40
:101DB00040938A0EB901A8010E94070E1F910F914E
:101DC000089560918C0E70918D0E40918E0E509101
:101DD0008F0E0E94070E0895EF92FF921F93CF93EC
:101DE000DF937C01EB0110E008C040918E0E509112
:101DF0008F0EBE010E94070E1F5FF701E10FF11D5C
:101E00008081882391F7DF91CF911F91FF90EF9010
:101E1000089560918C0E70918D0E0E94EC0E0895C5
:101E2000EF92FF921F93CF93DF937C01E9017093B0
:101E3000890E6093880E50938B0E40938A0E10E0AB
:101E400008C040918E0E50918F0EBE010E94070E69
:101E50001F5FF701E10FF11D8081882391F7DF916A
:101E6000CF911F91FF90EF90089520918C0E3091AB
:101E70008D0E0E94100F0895EF92FF920F931F9303
:101E8000CF93DF93C0E0D0E000E8E02EF12C082FE4
:101E900010E0C7010C2E02C0959587950A94E2F7D1
:101EA00080239123892B11F081E301C08EE20E94EF
:101EB000E10E2196C830D10561F7DF91CF911F91D6
:101EC0000F91FF90EF9008951F93DF93CF93CDB7BD
:101ED000DEB72B970FB6F894DEBF0FBECDBF482FED
:101EE000562F172FDE011196E5E0F3E08BE001900D
:101EF0000D928150E1F7852F912F9C01D901842FFC
:101F000011966AE00E947D188823D1F71C929E01E9
:101F10002F5F3F4F842F6AE00E947D18F901E90F7F
:101F2000F11D80818E93842F0E947D18482F882375
:101F300089F7852F912F2B960FB6F894DEBF0FBE31
:101F4000CDBFCF91DF911F9108958F929F92AF9255
:101F5000BF92CF92DF92EF92FF920F931F93DF9386
:101F6000CF93CDB7DEB72B970FB6F894DEBF0FBE79
:101F7000CDBF7B018C01942E852EDE011196E5E00C
:101F8000F3E08BE001900D928150E1F7892D982DBF
:101F90009C016901C801B7010894C11CD11C2AE049
:101FA00030E040E050E00E94B018C901DA01BC0105
:101FB000CD01611571058105910571F7F60110825A
:101FC0005E010894A11CB11CC801B7012AE030E0F1
:101FD00040E050E00E94B018F501E60FF71F808145
:101FE000F60182936F01C801B7012AE030E040E0BA
:101FF00050E00E94B018C901DA017C018D01E114A2
:10200000F1040105110501F7892D982D2B960FB6C6
:10201000F894DEBF0FBECDBFCF91DF911F910F911E
:10202000FF90EF90DF90CF90BF90AF909F908F90F8
:102030000895BF92CF92DF92EF92FF920F931F937A
:10204000DF93CF93CDB7DEB72B970FB6F894DEBFF3
:102050000FBECDBF7C01462FB72EDE011196E5E005
:10206000F3E08BE001900D928150E1F7842F9B2DDE
:102070009C018901C7010F5F1F4F6AE070E00E9459
:102080008918CB0161157105B1F7F80110826E0155
:102090000894C11CD11CC7016AE070E00E94891835
:1020A000F601E80FF91F8081F80182938F01C701C3
:1020B0006AE070E00E9489187B016115710559F78B
:1020C000842F9B2D2B960FB6F894DEBF0FBECDBF8D
:1020D000CF91DF911F910F91FF90EF90DF90CF9004
:1020E000BF900895DF93CF9300D00F92CDB7DEB7A6
:1020F000BE016F5F7F4F0E94640F0E94090F0F9017
:102100000F900F90CF91DF910895DF93CF93CDB7CC
:10211000DEB72A970FB6F894DEBF0FBECDBFAE0173
:102120004F5F5F4F0E94A50F0E94090F2A960FB6BE
:10213000F894DEBF0FBECDBFCF91DF910895DF933E
:10214000CF93CDB7DEB727970FB6F894DEBF0FBE9B
:10215000CDBFBE016F5F7F4F0E9419100E94090F13
:1021600027960FB6F894DEBF0FBECDBFCF91DF919B
:102170000895CF92DF92EF92FF920F931F93DF9318
:10218000CF93CDB7DEB727970FB6F894DEBF0FBE5B
:10219000CDBF8B017A016901BE016F5F7F4F0E9445
:1021A0001910B801A70196010E94100F27960FB6CB
:1021B000F894DEBF0FBECDBFCF91DF911F910F917D
:1021C000FF90EF90DF90CF900895EF92FF920F93E2
:1021D0001F93DF93CF93CDB7DEB727970FB6F89451
:1021E000DEBF0FBECDBF8B017A01BE016F5F7F4F97
:1021F0000E941910B801A7010E94350F27960FB64B
:10220000F894DEBF0FBECDBFCF91DF911F910F912C
:10221000FF90EF9008950F931F93DF93CF93CDB767
:10222000DEB727970FB6F894DEBF0FBECDBF8B0188
:10223000BE016F5F7F4F0E941910B8010E94EC0E23
:1022400027960FB6F894DEBF0FBECDBFCF91DF91BA
:102250001F910F910895CF92DF92EF92FF920F930B
:102260001F93DF93CF9300D00F92CDB7DEB78B01D2
:102270007A016901BE016F5F7F4F0E94640FB80150
:10228000A70196010E94100F0F900F900F90CF9111
:10229000DF911F910F91FF90EF90DF90CF90089505
:1022A000279A2F9808952F9A089514BC15BC2F983B
:1022B000089593E894BD91E095BD87BD08958DB1D3
:1022C0008F748DB98EB1806B8EB987B1837C87B9DD
:1022D00088B18C6388B9EAE6F0E080818568808304
:1022E00008959CB1907329F480915A0E8032A9F41C
:1022F00006C09033D9F480915A0E803139F4809120
:10230000590E81508093590E903329F480915A0EC2
:10231000803261F406C0992349F480915A0E8031CD
:1023200029F48091590E8F5F8093590E90935A0E25
:102330008091590E089586B18C7308951F920F9263
:102340000FB60F920BB60F9211242F933F934F931A
:102350005F936F937F938F939F93AF93BF93EF930D
:10236000FF930E94711188EC90E00197F1F7FF91C3
:10237000EF91BF91AF919F918F917F916F915F91FD
:102380004F913F912F910F900BBE0F900FBE0F906A
:102390001F901895EF92FF920F931F937B018C0172
:1023A00020E030E040E05FE40E94761588238CF066
:1023B000C801B70120E030E040E05FE40E94421332
:1023C0000E9434169B01AC012050304040405048E0
:1023D00006C0C801B7010E9434169B01AC01B901C7
:1023E000CA011F910F91FF90EF900895A0E0B0E017
:1023F000ECEFF1E10C94D218DC012B01FA019C9175
:10240000923008F439C1EB018881823008F433C17D
:10241000943069F4843009F02FC111969C91119782
:102420008981981709F428C1AAE3BDE025C1843049
:1024300009F421C18230A9F4923009F01DC19A013A
:10244000AD0188E0EA010990AE01E90109929E011F
:102450008150C1F7E201898111969C918923818382
:1024600008C1923009F407C112962D903C90139741
:10247000EB018A819B811496AD90BD90CD90DC904C
:102480001797EC80FD800E811F819101281B390B6D
:10249000B90137FF04C066277727621B730B6032D0
:1024A00071050CF061C0121613066CF53701480176
:1024B000062E04C096948794779467940A94D2F772
:1024C00021E030E040E050E004C0220F331F441F01
:1024D000551F6A95D2F721503040404050402E2180
:1024E0003F2140235123211531054105510521F09C
:1024F00021E030E040E050E079018A01E628F72849
:10250000082919293CC0232BD1F1260E371E35018D
:102510004601062E04C096948794779467940A9493
:10252000D2F721E030E040E050E004C0220F331F3A
:10253000441F551F6A95D2F721503040404050400B
:102540002A213B214C215D212115310541055105F1
:1025500021F021E030E040E050E059016A01A62876
:10256000B728C828D9280BC0821593052CF01C0168
:10257000AA24BB24650103C0EE24FF248701119621
:102580009C91D20111968C91981709F445C099231A
:1025900039F0A80197012A193B094C095D0906C0C9
:1025A000A60195012E193F09400B510B57FD08C09C
:1025B00011823382228224833583468357831DC050
:1025C00081E081833382228288279927DC01821B64
:1025D000930BA40BB50B84839583A683B7830DC09F
:1025E000220F331F441F551F24833583468357838F
:1025F00082819381019793838283248135814681EF
:102600005781DA01C9010197A109B1098F5F9F4F75
:10261000AF4FBF4328F30BC0918333822282EA0C71
:10262000FB1C0C1D1D1DE482F5820683178383E0CD
:102630008083248135814681578157FF1AC0C901A3
:10264000AA2797FDA095BA2F81709070A070B070E6
:102650005695479537952795822B932BA42BB52B11
:1026600084839583A683B783828193810196938324
:102670008283DF0101C0D201CD01CDB7DEB7E2E137
:102680000C94EE18A0E2B0E0E8E4F3E10C94DE185C
:1026900069837A838B839C832D833E834F83588702
:1026A000E9E0EE2EF12CEC0EFD1ECE010196B701F5
:1026B0000E94AC178E010F5E1F4FCE010596B80128
:1026C0000E94AC178A8991E089278A8BC701B801DB
:1026D000AE01475E5F4F0E94F6110E94D716A0968A
:1026E000E6E00C94FA18A0E2B0E0E9E7F3E10C941C
:1026F000DE1869837A838B839C832D833E834F838B
:102700005887F9E0EF2EF12CEC0EFD1ECE0101965C
:10271000B7010E94AC178E010F5E1F4FCE010596C8
:10272000B8010E94AC17C701B801AE01475E5F4F08
:102730000E94F6110E94D716A096E6E00C94FA18B3
:10274000A0E2B0E0E6EAF3E10C94D21869837A8360
:102750008B839C832D833E834F835887CE010196C4
:10276000BE01675F7F4F0E94AC17CE010596BE0188
:102770006F5E7F4F0E94AC179985923088F08989EF
:102780008230C8F0943019F4823051F404C084309F
:1027900029F4923081F48AE39DE0C6C0923049F476
:1027A00020E09A858A89981321E02A87CE0109962C
:1027B000BBC0823049F420E09A858A89981321E0D1
:1027C0002A8BCE014196B0C02D843E844F84588818
:1027D0006D887E888F88988CEE24FF248701AA2438
:1027E000BB24650140E050E060E070E0E0E0F0E034
:1027F000C10181709070892BE9F0E60CF71C081D6F
:10280000191D9A01AB012A0D3B1D4C1D5D1D80E079
:1028100090E0A0E0B0E0E614F7040805190520F404
:1028200081E090E0A0E0B0E0BA01A901480F591F93
:102830006A1F7B1FAA0CBB1CCC1CDD1C97FE08C0AA
:1028400081E090E0A0E0B0E0A82AB92ACA2ADB2AF9
:102850003196E032F10549F0660C771C881C991C12
:102860005694479437942794C3CFFA85EA892B89E5
:102870003C898B859C85280F391F2E5F3F4F17C0E1
:10288000CA0181709070892B61F016950795F794B5
:10289000E79480E090E0A0E0B0E8E82AF92A0A2B6B
:1028A0001B2B76956795579547952F5F3F4F77FD83
:1028B000E7CF0CC0440F551F661F771F17FD4160FF
:1028C000EE0CFF1C001F111F21503040403090E0E3
:1028D000590790E0690790E4790760F32B8F3C8FEC
:1028E000DB01CA018F779070A070B07080349105C1
:1028F000A105B10561F447FD0AC0E114F104010529
:10290000110529F0405C5F4F6F4F7F4F40781A8E62
:10291000FE1711F081E08A8F4D8F5E8F6F8F78A345
:1029200083E0898FCE0149960E94D716A096E2E1F6
:102930000C94EE18A8E1B0E0E0EAF4E10C94DA18A7
:1029400069837A838B839C832D833E834F8358874F
:10295000B9E0EB2EF12CEC0EFD1ECE010196B70175
:102960000E94AC178E010F5E1F4FCE010596B80175
:102970000E94AC172985223008F47EC03989323094
:1029800010F4B8017CC08A859A8989278A87243007
:1029900011F0223031F4231709F06EC06AE37DE0B4
:1029A0006EC0343039F41D861E861F86188A1C8638
:1029B0001B8604C0323021F484E08987B7015FC0F0
:1029C0002B853C858B899C89281B390B3C872B8761
:1029D000ED84FE840F851889AD88BE88CF88D88C99
:1029E000EA14FB040C051D0540F4EE0CFF1C001F4F
:1029F000111F215030403C872B8720E030E040E021
:102A000050E080E090E0A0E0B0E460E070E0EA1424
:102A1000FB040C051D0540F0282B392B4A2B5B2BA2
:102A2000EA18FB080C091D09B695A7959795879597
:102A3000EE0CFF1C001F111F6F5F7F4F6F31710580
:102A400031F7DA01C9018F779070A070B0708034CF
:102A50009105A105B10561F427FD0AC0E114F10457
:102A60000105110529F0205C3F4F4F4F5F4F207843
:102A70002D873E874F87588BBE01675F7F4FCB0105
:102A80000E94D7166896EAE00C94F618A8E1B0E028
:102A9000ECE4F5E10C94DE1869837A838B839C83E4
:102AA0002D833E834F83588789E0E82EF12CEC0E6E
:102AB000FD1ECE010196B7010E94AC178E010F5E7C
:102AC0001F4FCE010596B8010E94AC178985823050
:102AD00040F08989823028F0C701B8010E9424188B
:102AE00001C08FEF6896E6E00C94FA18A8E1B0E018
:102AF000ECE7F5E10C94DE1869837A838B839C8381
:102B00002D833E834F83588789E0E82EF12CEC0E0D
:102B1000FD1ECE010196B7010E94AC178E010F5E1B
:102B20001F4FCE010596B8010E94AC1789858230EF
:102B300040F08989823028F0C701B8010E9424182A
:102B400001C08FEF6896E6E00C94FA18A8E1B0E0B7
:102B5000ECEAF5E10C94DE1869837A838B839C831D
:102B60002D833E834F83588789E0E82EF12CEC0EAD
:102B7000FD1ECE010196B7010E94AC178E010F5EBB
:102B80001F4FCE010596B8010E94AC17898582308F
:102B900040F08989823028F0C701B8010E942418CA
:102BA00001C081E06896E6E00C94FA18A8E0B0E075
:102BB000ECEDF5E10C94DB189B01AC0183E089831B
:102BC000DA01C9018827B7FD83959927AA27BB2772
:102BD000B82E211531054105510519F482E089838C
:102BE0003AC08823A9F0203080E0380780E0480709
:102BF00080E8580729F460E070E080E09FEC30C086
:102C0000EE24FF248701E21AF30A040B150B02C01D
:102C100079018A018EE1C82ED12CDC82CB82ED8233
:102C2000FE820F831887C801B7010E94881601979A
:102C30001816190684F4082E04C0EE0CFF1C001FA1
:102C4000111F0A94D2F7ED82FE820F831887C81AEB
:102C5000D90ADC82CB82BA82CE0101960E94D716B5
:102C60002896E9E00C94F718ACE0B0E0EAE3F6E16E
:102C70000C94E21869837A838B839C83CE0101963E
:102C8000BE016B5F7F4F0E94AC178D81823061F176
:102C9000823050F1843021F48E81882351F12EC08E
:102CA0002F81388537FD20C06E812F3131051CF012
:102CB0006623F9F023C08EE190E0821B930B2985F7
:102CC0003A854B855C8504C0569547953795279581
:102CD0008A95D2F76623B1F05095409530952195AD
:102CE0003F4F4F4F5F4F0EC020E030E040E050E0DC
:102CF00009C02FEF3FEF4FEF5FE704C020E030E067
:102D000040E050E8B901CA012C96E2E00C94FE18AC
:102D1000EF92FF920F931F937B018C0180E0E816E6
:102D200080E0F80681E0080780E0180788F48FEF5C
:102D3000E816F1040105110531F028F088E090E073
:102D4000A0E0B0E017C080E090E0A0E0B0E012C0EA
:102D500080E0E81680E0F80680E0080781E01807C8
:102D600028F088E190E0A0E0B0E004C080E190E0CD
:102D7000A0E0B0E020E230E040E050E0281B390B5A
:102D80004A0B5B0B04C016950795F794E7948A9558
:102D9000D2F7F701EE5BF24F8081281B3109410920
:102DA0005109C9011F910F91FF90EF900895DF9293
:102DB000EF92FF920F931F93FC01E480F580068150
:102DC0001781D1808081823048F480E090E0A0E1DA
:102DD000B0E0E82AF92A0A2B1B2BA5C0843009F49D
:102DE0009FC0823021F4EE24FF24870105C0E11446
:102DF000F1040105110519F4E0E0F0E096C06281EC
:102E000073819FEF623879070CF05BC022E83FEFD7
:102E1000261B370B2A3131052CF020E030E040E052
:102E200050E02AC0B801A701022E04C0769567952C
:102E3000579547950A94D2F781E090E0A0E0B0E082
:102E400004C0880F991FAA1FBB1F2A95D2F70197AC
:102E5000A109B1098E219F21A023B1230097A105CB
:102E6000B10521F081E090E0A0E0B0E09A01AB0173
:102E7000282B392B4A2B5B2BDA01C9018F779070F5
:102E8000A070B07080349105A105B10539F427FF19
:102E900009C0205C3F4F4F4F5F4F04C0215C3F4F44
:102EA0004F4F5F4FE0E0F0E02030A0E03A07A0E0B5
:102EB0004A07A0E45A0710F0E1E0F0E079018A0146
:102EC00027C06038710564F5FB01E158FF4FD80158
:102ED000C7018F779070A070B07080349105A10504
:102EE000B10539F4E7FE0DC080E490E0A0E0B0E069
:102EF00004C08FE390E0A0E0B0E0E80EF91E0A1FE6
:102F00001B1F17FF05C016950795F794E794319698
:102F100087E016950795F794E7948A95D1F705C051
:102F2000EE24FF248701EFEFF0E06E2F6795662710
:102F30006795902F9F77D794DD24D7948E2F869511
:102F4000492F462B582F5D29B701CA011F910F91B8
:102F5000FF90EF90DF900895FC01DB0140815181EB
:102F60002281622F6F7770E0221F2227221F938118
:102F7000892F880F822B282F30E0991F9927991FBE
:102F800011969C93119721153105A9F5411551050D
:102F90006105710511F482E037C082E89FEF139656
:102FA0009C938E9312979A01AB0167E0220F331F17
:102FB000441F551F6A95D1F783E08C930DC0220FF3
:102FC000331F441F551F12968D919C9113970197A3
:102FD00013969C938E931297203080E0380780E000
:102FE000480780E4580758F314962D933D934D936A
:102FF0005C93179708952F3F310579F441155105DA
:103000006105710519F484E08C93089564FF03C091
:1030100081E08C9312C01C9210C02F573040139641
:103020003C932E93129783E08C9387E0440F551FB7
:10303000661F771F8A95D1F7706414964D935D9340
:103040006D937C93179708951F93DC01FB019C916E
:10305000923008F447C08081823008F443C0943035
:1030600051F411961C91843099F58181682F70E09C
:10307000611B71093FC0843021F0923031F48230FD
:10308000B9F18181882389F12DC011961C91119786
:103090008230F1F081811817D9F412962D913C916C
:1030A0001397828193818217930794F02817390729
:1030B000BCF014968D919D910D90BC91A02D248112
:1030C000358146815781281739074A075B0718F46D
:1030D000112341F00AC082179307A407B50740F4F3
:1030E000112319F061E070E005C06FEF7FEF02C0BF
:1030F00060E070E0CB011F910895991B79E004C056
:10310000991F961708F0961B881F7A95C9F7809526
:103110000895AA1BBB1B51E107C0AA1FBB1FA6171E
:10312000B70710F0A61BB70B881F991F5A95A9F770
:1031300080959095BC01CD01089597FB092E072637
:103140000AD077FD04D0E5DF06D000201AF4709590
:1031500061957F4F0895F6F7909581959F4F08955B
:10316000A1E21A2EAA1BBB1BFD010DC0AA1FBB1F8B
:10317000EE1FFF1FA217B307E407F50720F0A21BFD
:10318000B30BE40BF50B661F771F881F991F1A946A
:1031900069F760957095809590959B01AC01BD0194
:1031A000CF0108952F923F924F925F926F927F923C
:1031B0008F929F92AF92BF92CF92DF92EF92FF9247
:1031C0000F931F93CF93DF93CDB7DEB7CA1BDB0BF3
:1031D0000FB6F894DEBF0FBECDBF09942A88398898
:1031E00048885F846E847D848C849B84AA84B9849F
:1031F000C884DF80EE80FD800C811B81AA81B981AB
:10320000CE0FD11D0FB6F894DEBF0FBECDBFED01BE
:103210000895CF93DF93BC018230910510F462E0F2
:1032200070E0A091920EB091930EED01E0E0F0E01D
:1032300040E050E021C0888199818617970769F4A2
:103240008A819B81309719F09383828304C0909385
:10325000930E8093920EFE0134C06817790738F4FC
:103260004115510519F08417950708F4AC01FE01CA
:103270008A819B819C01E9012097E9F6411551055E
:10328000A9F1CA01861B970B049708F4BA01E0E084
:10329000F0E02AC08D919C91119784179507F9F45D
:1032A0006417750781F412968D919C91139730974E
:1032B00019F09383828304C09093930E8093920EAF
:1032C000FD0132964FC0CA01861B970BFD01E80F26
:1032D000F91F6193719302978D939C9343C0FD01F5
:1032E000828193819C01D9011097A1F68091900E63
:1032F0009091910E892B41F48091440E9091450E4E
:103300009093910E8093900E4091460E5091470EEF
:103310004115510541F44DB75EB78091420E909131
:10332000430E481B590B2091900E3091910E24179B
:103330003507B0F4CA01821B930B8617970780F0FC
:10334000AB014E5F5F4F8417950750F0420F531F3C
:103350005093910E4093900EF9016193719302C0C6
:10336000E0E0F0E0CF01DF91CF910895CF93DF93BC
:10337000009709F450C0EC0122971B821A82A09199
:10338000920EB091930E109709F140E050E0AC1707
:10339000BD0708F1BB83AA83FE0121913191E20FA1
:1033A000F31FAE17BF0779F48D919C911197280FE9
:1033B000391F2E5F3F4F3983288312968D919C9140
:1033C00013979B838A834115510571F4D093930E13
:1033D000C093920E20C012968D919C911397AD01CF
:1033E000009711F0DC01D3CFFA01D383C28321917E
:1033F0003191E20FF31FCE17DF0769F488819981BD
:10340000280F391F2E5F3F4FFA01318320838A81B5
:103410009B8193838283DF91CF910895AF92BF9276
:10342000CF92DF92EF92FF920F931F93CF93DF9390
:10343000EC01A880B980CA80DB80A114B104C1046A
:10344000D10441F484E2A82E89EDB82E8BE5C82E74
:1034500087E0D82EC601B5012DE133EF41E050E001
:103460000E946F1D27EA31E440E050E00E94501DA9
:103470007B018C01C601B5012DE133EF41E050E045
:103480000E946F1DCA01B9012CEE34EF4FEF5FEFC0
:103490000E94501D6E0D7F1D801F911F97FF04C05D
:1034A0006150704080409048688379838A839B8311
:1034B0009B013F77C901DF91CF911F910F91FF9041
:1034C000EF90DF90CF90BF90AF9008950E940E1ABA
:1034D000089588E49EE00E940E1A0895A0E0B0E0EE
:1034E0008093480E9093490EA0934A0EB0934B0ED2
:1034F00008950F931F93DF93CF93CDB7DEB72E9729
:103500000FB6F894DEBF0FBECDBF0D891E8986E0D1
:103510008C831A8309838FEF9FE79E838D839E019F
:10352000275E3F4FCE0101966F89788DA9010E94D9
:10353000AA1A2F813885020F131FF80110822E96C8
:103540000FB6F894DEBF0FBECDBFCF91DF911F91B4
:103550000F9108952F923F924F925F926F927F92B8
:103560008F929F92AF92BF92CF92DF92EF92FF9293
:103570000F931F93DF93CF93CDB7DEB72B970FB683
:10358000F894DEBF0FBECDBF3C012B015A01FC01F8
:1035900017821682838181FD03C06FEF7FEFC6C162
:1035A0009AE0892E1E010894211C311CF30123810D
:1035B000F20123FD859123FF81912F01882309F4D6
:1035C000B2C1853239F423FD859123FF81912F010A
:1035D000853229F490E0B3010E94C61CE7CF982FF2
:1035E000FF24EE249924FFE1FF15D0F09B3269F00F
:1035F0009C3228F4903259F0933291F40EC09D32EF
:1036000049F0903369F441E024C052E0F52A84E0A7
:10361000F82A28C098E0F92A25C0E0E1FE2A22C055
:10362000F7FC29C0892F80538A3070F4F6FE05C05C
:10363000989C902C1124980E15C0E89CE02C112425
:10364000E80EF0E2FF2A0EC09E3229F4F6FC6BC1B0
:1036500040E4F42A07C09C3619F450E8F52A02C069
:10366000983649F4F20123FD959123FF91912F01A2
:10367000992309F0B8CF892F8554833018F08052F0
:10368000833038F444E050E0A40EB51E5FE3598364
:103690000FC0933631F0933779F0933509F056C067
:1036A00020C0F5018081898342E050E0A40EB51E60
:1036B000610101E010E012C0F501C080D180F6FC8C
:1036C00003C06FEF7FEF02C0692D70E042E050E071
:1036D000A40EB51EC6010E94BB1C8C015FE7F5223B
:1036E00014C0F501C080D180F6FC03C06FEF7FEFFE
:1036F00002C0692D70E042E050E0A40EB51EC60184
:103700000E94B01C8C0150E8F52AF3FE07C01AC0D5
:1037100080E290E0B3010E94C61CEA948E2D90E0F6
:1037200008171907A8F30EC0F601F7FC8591F7FEFC
:1037300081916F0190E0B3010E94C61CE110EA94F0
:10374000015010400115110579F7EAC0943611F0C7
:10375000993669F5F7FE08C0F50120813181428173
:10376000538184E090E00AC0F501808191819C0141
:10377000442737FD4095542F82E090E0A80EB91EF3
:103780009FE6F92257FF09C0509540953095219545
:103790003F4F4F4F5F4FE0E8FE2ACA01B901A10138
:1037A0002AE030E00E94F21CD82ED21840C0953793
:1037B00029F41F2D1F7E2AE030E01DC01F2D197F28
:1037C0009F3661F0903720F4983509F0ACC00FC0F7
:1037D000903739F0983709F0A6C004C028E030E0EF
:1037E0000AC0106114FD146020E130E004C014FD33
:1037F000166020E132E017FF08C0F5016081718199
:103800008281938144E050E008C0F501808191817C
:10381000BC0180E090E042E050E0A40EB51EA101A2
:103820000E94F21CD82ED2188FE7F82EF122F6FE55
:103830000BC05EEFF522D91438F4F4FE07C0F2FC99
:1038400005C08FEEF82202C01D2D01C0192DF4FE17
:103850000DC0FE01ED0DF11D8081803319F499EE4C
:10386000F92208C01F5FF2FE05C003C08F2D8678C5
:1038700009F01F5F0F2DF3FC14C0F0FE0FC01E15E2
:1038800010F09D2C0BC09D2C9E0C911A1E2D06C075
:1038900080E290E0B3010E94C61C1F5F1E15C0F3BA
:1038A00004C01E1510F4E11A01C0EE2404FF0FC07D
:1038B00080E390E0B3010E94C61C02FF1DC001FD21
:1038C00003C088E790E00EC088E590E00BC0802F31
:1038D000867891F001FF02C08BE201C080E2F7FC24
:1038E0008DE290E0B3010E94C61C06C080E390E028
:1038F000B3010E94C61C9A94D914C0F3DA94F10162
:10390000ED0DF11D808190E0B3010E94C61CDD2009
:10391000A9F706C080E290E0B3010E94C61CEA94B9
:10392000EE20C1F743CEF30166817781CB012B9660
:103930000FB6F894DEBF0FBECDBFCF91DF911F91C0
:103940000F91FF90EF90DF90CF90BF90AF909F903E
:103950008F907F906F905F904F903F902F90089541
:10396000FC010590615070400110D8F7809590954A
:103970008E0F9F1F0895FC0161507040019001104F
:10398000D8F7809590958E0F9F1F08950F931F93E2
:10399000CF93DF938C01EB018B8181FF1BC082FFF2
:1039A0000DC02E813F818C819D812817390764F4D9
:1039B000E881F9810193F983E88306C0E885F985F8
:1039C000802F0995892B31F48E819F8101969F83E9
:1039D0008E8302C00FEF1FEFC801DF91CF911F91BF
:1039E0000F910895FA01AA27283051F1203181F171
:1039F000E8946F936E7F6E5F7F4F8F4F9F4FAF4FF7
:103A0000B1E03ED0B4E03CD0670F781F891F9A1F09
:103A1000A11D680F791F8A1F911DA11D6A0F711DBD
:103A2000811D911DA11D20D009F468943F912AE0C9
:103A3000269F11243019305D3193DEF6CF010895B1
:103A4000462F4770405D4193B3E00FD0C9F7F6CFE2
:103A5000462F4F70405D4A3318F0495D31FD4052AA
:103A6000419302D0A9F7EACFB4E0A6959795879540
:103A700077956795BA95C9F700976105710508951F
:103A80009B01AC010A2E06945795479537952795CB
:103A9000BA95C9F7620F731F841F951FA01D089563
:103AA000629FD001739FF001829FE00DF11D649F22
:103AB000E00DF11D929FF00D839FF00D749FF00DAE
:103AC000659FF00D9927729FB00DE11DF91F639F4F
:103AD000B00DE11DF91FBD01CF011124089597FB21
:103AE000092E05260ED057FD04D03ADB0AD0001C63
:103AF00038F450954095309521953F4F4F4F5F4F8B
:103B00000895F6F790958095709561957F4F8F4F4A
:083B10009F4F0895F894FFCFC8
:103B180020205F5F5F2E20202020202020202020D2
:103B28002020202020202020202020202020205F4E
:103B38005F202020200A0020205C5F207C5F5F5FE0
:103B48005F5F5F5F5F5F2020205F5F5F5F205F5F79
:103B58005F5F5F20207C20207C205F5F0A002020A0
:103B6800207C205F5F205C5F20205F5F205C5F2FF0
:103B7800205F5F205C5C5F5F20205C207C20207CD5
:103B88002F202F0A002020207C205C5F5C205C20F6
:103B9800207C205C2F5C20205F5F5F2F202F205F20
:103BA8005F205C7C202020203C200A002020207CF4
:103BB8005F5F5F20202F5F5F7C202020205C5F5F9D
:103BC8005F20203E5F5F5F5F20202F5F5F7C5F206C
:103BD8005C0A00202020202020205C2F202020208C
:103BE80020202020202020205C2F20202020205C46
:103BF8002F20202020205C2F0A0A002020202020AF
:103C080020202020202020202020202020202020AC
:103C1800202020205F5F200A002020202020202054
:103C280020202020205F5F5F5F20205F5F205F5F94
:103C38005F2F20207C5F200A0020202020202020C9
:103C4800202020202F20205F205C7C20207C20202A
:103C58005C2020205F5F5C20200A0020202020209C
:103C680020202020202820203C5F3E202920207C66
:103C780020202F7C20207C0A0020202020202020AB
:103C8800202020205C5F5F5F5F2F7C5F5F5F5F2F7E
:103C9800207C5F5F7C000A2020202020202020201C
:103CA80050726573732043656E74657220746F205B
:103CB80053746172740020202020202020202020AE
:103CC800202047616D65204F7665722E0A000A2014
:103CD8002020202020202050726573732043656EB9
:103CE80074657220746F2052657374617274002554
:103CF800303364004C6576656C2025640005000A45
:103D08000001005F0091003D013F0176007A003913
:103D1800013D01010130313233343536373839004D
:103D28005702E3B5DD7DFCCF37B4555C91011875BA
:103D380005A89CF7DFF7E08626E102C3F9EE4AE121
:103D48004D99F7F429A905D1CA3B3606E0FDE0FBF9
:103D580007F8399B27A69EF7AECCE362F092C580A0
:103D68005AFF0004A08D76FEFF07FA7FE2D7844A47
:103D7800293AAF8CADEEF6B54D85CCFC45A160FF78
:103D8800F06B00540AF9CAC4FF03FFF7FFF75EDFC0
:103D98007E8E5EA618F6FFFF95FC592536FF06FFB6
:103DA800490311E140787A1D3084AF9BBCBE0E9C5C
:103DB8006FFBBBF7D22A28996BEC38FF4339829303
:103DC80001CFE0BF6BFB6ABA000060380D53A52134
:103DD800E63976BD59FF8CA37C343DAF97FF1F00B1
:103DE800BF1B95043704D50093313F021AA5DF05A0
:103DF800D964D70C7D5D3DAFB25110135C899453E3
:103E08003E4CFE18F0DA277AB604D9E60DDF00C872
:103E180049038C819F0328B50ACA7A1DE067BCBC98
:103E28009DDC09C1BA1B0FF85B0FFDD443FDDF34DD
:103E3800DFF5B4FA0FFB0402E6CB8073409245A18C
:103E4800246A69ABCCCC671A19FEFFE7AC7DF0F6A3
:103E580020480480D0DDCEA3A0CAAAEB84891D2502
:103E680094B94C714E53F45C1695470325EC04E065
:103E7800A0FFCBA3A449651A15A6CDC4D9ED2D7C06
:103E8800F3FF60FF40F88FE3FF052459E7C073068E
:103E9800039008D068EA07F839FDC3B01A5584ECD6
:103EA800A7024F01A871C9CA199515AFD4032F2CC1
:103EB800FFB7BA4C8CD9D0E9D403972AD86CD4036D
:103EC800E6E1CBA339F7F9F62932452175E4E0DFBD
:103ED800E07F8CD9B8FD269274DB8DAAC3A9118323
:103EE800E04FE07943D320FD0F9C06E243D30FCB8C
:103EF80081E6439DA6787CFE350243D3C792666A65
:103F0800DCC60FFC6C01958C86BB4CDC6DAB6ACBB8
:103F18002C9BC0F9EAFB0FFC08FAEDFBE8896BFF64
:103F2800C3B0BD64DBFF7129DCFF0783FBFDFAFF2B
:103F3800A7D806B80098BEF7FF07164C1744D32A2F
:103F4800581CBD050F5A80FE74F3E6FF06F71100F2
:103F580033630462298BCA5900A02F0A4C9BC8CA34
:103F680051044F5321BC55AD8401200325190D027E
:103F7800AF002419ADBDE64972724952E651118865
:103F880055AD8C01E44A455360FC9999F9740706CC
:103F98007A93C4C1B0E29301C749C6302A81008828
:103FA800AFEC0350F18DA238FA8DF149692A8813D4
:103FB8000A9442FDE6496BCA7A06F5D51A90219C07
:103FC8008703AA524AD00D4407A987E945EB90D93F
:103FD800B4FE69BA0872B8C22103EC0B49028C31ED
:103FE80023F6B79A19C800809AD3E73254FEB2F87C
:103FF800EDAA0080EB81C6FCFF052D4B4553EC7AFA
:1040080009620C302BBC17131622D364CDC455EEAD
:10401800EAE99FBF4D6B8AC1AA9B9F1CCDD0CC8576
:10402800708465628293130079E6F7EE4BE5EA52F5
:1040380090C5C3180A625AF7B411DF7F07F8FF0763
:10404800E0071F68DFF5E0CF1FB81F381F88E6FFBD
:104058004F569069671A12B44AAA29CAEB51549666
:10406800B546CDC4C38091B190DA14F04EE5EA4A62
:10407800B6FEC84B40F9A36AAEFA04B105C9C4E25A
:1040880075FC246A51F7F0EE0DA0DEFFE0FDB2F8F2
:10409800E0CF09F824024424CBA369839703F2F9FB
:1040A8001183E79F9AD373FBAA80A14869C151F293
:1040B800BF753988E8A83FA7B4E91FF8B8C2BFFBA5
:1040C800CFC90EC220E42CCBFBDEC1E4209BE8FE66
:1040D800EC03DFFFEAB2C3FA20B316645FE796ACDD
:1040E8004C0566D5A0FEA983229B00FEE0FE24DDD8
:1040F8002C6334AF756910841084F7BDC842958C61
:10410800E0076F1D00044E05ED0468052A05866565
:104118003613CC04A6A7746DE5AFC38AD0ACEF07FD
:10412800A729CA617943DF50ADEEE03F434602C894
:1041380080DC0084C0FB03909FDBD5AC17A814F08B
:10414800FEF77603CD4BF9F856FBE7323A75ABFF2D
:10415800EF758E346D611201076047E96BB78D4AC0
:104168004114EBCA4AE51048F20810484DFA793074
:10417800740160FAA1B8A5C1795A2DB29DF78004DF
:10418800FFB7FEFF4D05469909228A59EFFEC7D1B0
:104198004BA009DBA63142F6DE8DCABE502DC24DBA
:1041A800E078933DB1EF92C531F7278F6289F8E443
:1041B800246A0632515101E8C60B5BD61323ECFF83
:1041C800D3AD84C8FBB33FE77FCE9EFF1AC6BD922E
:1041D8001DEC3FE77AFDD6931CFDE07FA0FFD9FFD9
:1041E80003CDE0FFE0E757F7A9FF8218D452B6FEE7
:1041F800DCAE23B32EE37C8D10F47D9652F3FFE7FB
:10420800F9FA6FCD3DFCDAFF9AD6D9CC72979BFDAF
:1042180031F7D9D4F5AED6FE5AE5FBB4B8FDAAEB12
:104228000FFDD3FC95257F8653743BB64DB475E4DA
:10423800FCFF19CDD5ACE0BFE0076636019EC01A79
:104248009CFF9F1774DB1B6D686265BB6369AA9B43
:10425800D96439FF04E1E700F1FD86C91FF8B4FA13
:10426800EFC80FD212F82E9A91C99AAF2CFABFFF55
:1042780000C26BFF9B62CA0ED594C9F308FC0C768A
:10428800108804ED09C100808CB19FE5ED92D5EC52
:104298005945F7357CAD665C2ADF907104D9CFA10A
:1042A800C6FFC9F5884C1F76A7E5F566190025E015
:1042B80006AA35F79202A5191BDDBABA34039B93F7
:1042C80090B90DAA8E3DDD865D7BF0CED30768627E
:1042D800994E277A07DBB0C0CFFDEFFEF6FDF10B54
:1042E800E79B0FE0BC7ED98E978B46206A4CECADDD
:1042F80016DC6EE48AA240FF8EED2E71CE184A02BB
:1043080021FEFEFFDDFED1E7AF330AF7B13DFFF72F
:10431800F39FAEBD3CFF5AFF8293587560A8138D7A
:10432800CB8CD135D19B271A063351C27084CBFE72
:10433800CE3390D20FAA78F5002CCBFEF5FE1000F4
:10434800BD9208FD0CFAE23F78220FD4AE73FDA6A9
:104358008604FBEF164AB703F24DA4CB000488FA93
:104368008541A7CDEB51BCFF4F7B8861E68310C424
:1043780030840084646CA339CE9DC73134B4E0FB2B
:10438800A7FBC0FAC0FC20FDE0FC20FAC7FAADFE8E
:104398009ADBF9F562FA0462494269FB0801009860
:1043A800591D2003DC214C69BCBE7DAFAA9B06AA1F
:1043B8003C9E75DD4CDC7DAE9F86F1E555EFD39FC5
:1043C8009FDE3CFCD9FCDBFE1BDD92DBFA9617CEA8
:1043D80057EFCFBC7DAFDFCC92DBC86CC978CF0478
:1043E8007AFFECE14F56D4DC39AE4A8378CEEE76CC
:1043F800D8F488FD34DDF6B44CFBD9CCF2FF10803C
:104408004F5336FF54FE73FED7FEF5FE06D719EF5D
:10441800D88E54B300E77FCE65E1D71932058F30C7
:104428008BDCF7F3E37086C954F9C0EA27CC568DC4
:104438001FD87100A4119D4549C0FCFECD03E15170
:1044480019FE52D2BFFBFEFE9ADDCCFC79E5069838
:1044580074F42E9690383CE7308A1BDD365A325D6C
:1044680011836CBAC6FA1CB739FC04F4E3708A01EC
:104478001FD853CC667102628339A3FB1080189849
:104488001EA1B369D693904A7BFA969A0952759AF7
:10449800495252437AEE34A5CB89555CABF90421D5
:1044A8004CFD4BE0ED9293E22DB24BD4288399F961
:1044B8002DE1708A936100F809E907F006C047E921
:1044C800E4E822F945A1028089FA0FE0C9F9B0C0F1
:1044D800CAA2705100001001B27308024200000025
:1044E8003FF508D09A0C59A33AB38CB167420872C9
:1044F8007906F08B52840FF813FAED9A48626FB37D
:1045080026E139FBD5ACEAC0EB926AAA016000D07B
:1045180071BCD5010C015C4372C9957ACBFE2ECAD9
:104528000AD08BE0839805F825BB72E4E0A82382C3
:104538008C64A93001B268D9A702228AC0FB20FB8B
:1045480080EE26F6D1BD4F210EFC94FC90C58293D7
:10455800A8EE2CF5D6FE82930190E553970A340312
:1045680030FA06CD20F966F895FCC0FEEC675203D8
:10457800179F4A2C394E2159BDFFC0FD0272CB8BC3
:1045880054747EFEEC04A08E32DC2F5D78F87FFB3D
:10459800628918C675AD575C75C518BE01CACAF9D7
:1045A800C0FEAE037D8695CBD96A12749301A22C06
:1045B80067FB10CA0E7441816110E891DFFF5DCE80
:1045C800C889AE7382984A19A683970308D0C9E0B0
:1045D800D39C8A0400EBF7F504E0FF075049EB038E
:1045E800E98A1F0EE0A7E587EF07D703164499C9A4
:1045F800515CCBFE00982D4BCDE6D1FA6E9209FAAC
:1046080066FE8FF74AE5B4FEEAFA55CBA6A9B1D5FE
:1046180060FA20F460FE8FE368FAE649318C98D797
:104628000FFC18F61004B133369F0F04AEC9A0CAA8
:104638008BE3FBDD74DB55FCD60D67E4BADE20EFB7
:1046480008FB78734FFE66F81084AB033BCD9903E3
:104658007B3C31FC51DD90B31A47FD07B6A63906FD
:10466800CB8CB4FE666A497ACBA3D3C44D8A076063
:10467800950109D8D88B525380FD8E3E1F383E4392
:104688007FFB70FB8862F9FE9C5C24B4ECFF24027B
:10469800827805A964E57302009860FEE0F307D00C
:1046A800056235F775F48BC542C8954506E2C3D94E
:1046B8001EA1DF753F6350678EFDF7FEF7FF1F8869
:1046C8001F7815801DEC563292F20D44B304FB7C22
:1046D800C0CC2491E698F0D85D0506C8C0FCA1A618
:1046E80066067CB8E0FA00FD1FC80DF863F004DB2D
:1046F8007F06A4F311FD04E31F9800FFE0CF863581
:104708000802BFA7D57CAA62F6F6FFFFBEF77AA516
:1047180094D314FA70FBC0FAA0A2667188610FF8EE
:104728003FA74F541BCDCDC42F74720A4819E0FF20
:1047380050FF60EE80FEE0FE60FFE6FF669E68FDCB
:1047480080FFA0FFB500A128313D00000000000057
:104758000000000102020303030304040404040428
:1047680004040505050505050505050505050505F3
:1047780005050606060606060606060606060606D3
:1047880006060606060606060606060606060606C1
:1047980006060707070707070707070707070707A3
:1047A8000707070707070707070707070707070791
:1047B8000707070707070707070707070707070781
:1047C8000707070707070707070707070707070771
:1047D8000707080808080808080808080808080853
:1047E8000808080808080808080808080808080841
:1047F8000808080808080808080808080808080831
:104808000808080808080808080808080808080820
:104818000808080808080808080808080808080810
:104828000808080808080808080808080808080800
:1048380008080808080808080808080808080808F0
:1048480008080808080808080808080808080808E0
:0C48580008082000940E00000100000081
:00000001FF
